{
  "address": "0x5FbDB2315678afecb367f032d93F642f64180aa3",
  "abi": [
    {
      "inputs": [],
      "stateMutability": "nonpayable",
      "type": "constructor"
    },
    {
      "anonymous": false,
      "inputs": [
        {
          "indexed": false,
          "internalType": "string",
          "name": "confession",
          "type": "string"
        }
      ],
      "name": "newConfession",
      "type": "event"
    },
    {
      "inputs": [
        {
          "internalType": "string",
          "name": "confession",
          "type": "string"
        }
      ],
      "name": "confess",
      "outputs": [],
      "stateMutability": "nonpayable",
      "type": "function"
    },
    {
      "inputs": [
        {
          "internalType": "uint256",
          "name": "",
          "type": "uint256"
        }
      ],
      "name": "confessions",
      "outputs": [
        {
          "internalType": "string",
          "name": "",
          "type": "string"
        }
      ],
      "stateMutability": "view",
      "type": "function"
    },
    {
      "inputs": [],
      "name": "getConfessions",
      "outputs": [
        {
          "internalType": "string[]",
          "name": "",
          "type": "string[]"
        }
      ],
      "stateMutability": "view",
      "type": "function"
    },
    {
      "inputs": [],
      "name": "getDeployer",
      "outputs": [
        {
          "internalType": "address",
          "name": "",
          "type": "address"
        }
      ],
      "stateMutability": "view",
      "type": "function"
    },
    {
      "inputs": [],
      "name": "i_deployer",
      "outputs": [
        {
          "internalType": "address",
          "name": "",
          "type": "address"
        }
      ],
      "stateMutability": "view",
      "type": "function"
    }
  ],
  "transactionHash": "0x854c909d94d6862d0e0366191ea0886873fb985136113a2de7b271f25e2b680d",
  "args": [],
  "numDeployments": 1,
  "solcInputHash": "d7210630dff075f2c5244d337fdcbd2e",
  "bytecode": "0x60a060405234801561001057600080fd5b503373ffffffffffffffffffffffffffffffffffffffff1660808173ffffffffffffffffffffffffffffffffffffffff1660601b8152505060008060018154018082558091505060019003906000526020600020016000604051806080016040528060538152602001610a84605391399091909150908051906020019061009892919061009e565b506101a2565b8280546100aa90610141565b90600052602060002090601f0160209004810192826100cc5760008555610113565b82601f106100e557805160ff1916838001178555610113565b82800160010185558215610113579182015b828111156101125782518255916020019190600101906100f7565b5b5090506101209190610124565b5090565b5b8082111561013d576000816000905550600101610125565b5090565b6000600282049050600182168061015957607f821691505b6020821081141561016d5761016c610173565b5b50919050565b7f4e487b7100000000000000000000000000000000000000000000000000000000600052602260045260246000fd5b60805160601c6108bd6101c76000396000818161017c015261024e01526108bd6000f3fe608060405234801561001057600080fd5b50600436106100575760003560e01c806304141e601461005c57806372630531146100785780637cf7b94614610096578063c02f0401146100c6578063e1b4fedd146100e4575b600080fd5b61007660048036038101906100719190610471565b610102565b005b610080610178565b60405161008d91906105f1565b60405180910390f35b6100b060048036038101906100ab91906104ba565b6101a0565b6040516100bd919061062e565b60405180910390f35b6100ce61024c565b6040516100db91906105f1565b60405180910390f35b6100ec610270565b6040516100f9919061060c565b60405180910390f35b60008190806001815401808255809150506001900390600052602060002001600090919091909150908051906020019061013d929190610349565b507f87a8da5a4f131ef34436c9ae4d4390e393accb06c5b02003cf93a48cde294cd28160405161016d919061062e565b60405180910390a150565b60007f0000000000000000000000000000000000000000000000000000000000000000905090565b600081815481106101b057600080fd5b9060005260206000200160009150905080546101cb9061078a565b80601f01602080910402602001604051908101604052809291908181526020018280546101f79061078a565b80156102445780601f1061021957610100808354040283529160200191610244565b820191906000526020600020905b81548152906001019060200180831161022757829003601f168201915b505050505081565b7f000000000000000000000000000000000000000000000000000000000000000081565b60606000805480602002602001604051908101604052809291908181526020016000905b828210156103405783829060005260206000200180546102b39061078a565b80601f01602080910402602001604051908101604052809291908181526020018280546102df9061078a565b801561032c5780601f106103015761010080835404028352916020019161032c565b820191906000526020600020905b81548152906001019060200180831161030f57829003601f168201915b505050505081526020019060010190610294565b50505050905090565b8280546103559061078a565b90600052602060002090601f01602090048101928261037757600085556103be565b82601f1061039057805160ff19168380011785556103be565b828001600101855582156103be579182015b828111156103bd5782518255916020019190600101906103a2565b5b5090506103cb91906103cf565b5090565b5b808211156103e85760008160009055506001016103d0565b5090565b60006103ff6103fa84610675565b610650565b90508281526020810184848401111561041b5761041a610850565b5b610426848285610748565b509392505050565b600082601f8301126104435761044261084b565b5b81356104538482602086016103ec565b91505092915050565b60008135905061046b81610870565b92915050565b6000602082840312156104875761048661085a565b5b600082013567ffffffffffffffff8111156104a5576104a4610855565b5b6104b18482850161042e565b91505092915050565b6000602082840312156104d0576104cf61085a565b5b60006104de8482850161045c565b91505092915050565b60006104f3838361057f565b905092915050565b6105048161070c565b82525050565b6000610515826106b6565b61051f81856106d9565b935083602082028501610531856106a6565b8060005b8581101561056d578484038952815161054e85826104e7565b9450610559836106cc565b925060208a01995050600181019050610535565b50829750879550505050505092915050565b600061058a826106c1565b61059481856106ea565b93506105a4818560208601610757565b6105ad8161085f565b840191505092915050565b60006105c3826106c1565b6105cd81856106fb565b93506105dd818560208601610757565b6105e68161085f565b840191505092915050565b600060208201905061060660008301846104fb565b92915050565b60006020820190508181036000830152610626818461050a565b905092915050565b6000602082019050818103600083015261064881846105b8565b905092915050565b600061065a61066b565b905061066682826107bc565b919050565b6000604051905090565b600067ffffffffffffffff8211156106905761068f61081c565b5b6106998261085f565b9050602081019050919050565b6000819050602082019050919050565b600081519050919050565b600081519050919050565b6000602082019050919050565b600082825260208201905092915050565b600082825260208201905092915050565b600082825260208201905092915050565b60006107178261071e565b9050919050565b600073ffffffffffffffffffffffffffffffffffffffff82169050919050565b6000819050919050565b82818337600083830152505050565b60005b8381101561077557808201518184015260208101905061075a565b83811115610784576000848401525b50505050565b600060028204905060018216806107a257607f821691505b602082108114156107b6576107b56107ed565b5b50919050565b6107c58261085f565b810181811067ffffffffffffffff821117156107e4576107e361081c565b5b80604052505050565b7f4e487b7100000000000000000000000000000000000000000000000000000000600052602260045260246000fd5b7f4e487b7100000000000000000000000000000000000000000000000000000000600052604160045260246000fd5b600080fd5b600080fd5b600080fd5b600080fd5b6000601f19601f8301169050919050565b6108798161073e565b811461088457600080fd5b5056fea2646970667358221220b9a12311ae89bc24b4bc2aeeca98df116d605dc845854de998c7e46c8704684464736f6c6343000807003348692c2074686973206973207468652067656e6573697320636f6e66657373696f6e2070726f6475636564206279207468652063726561746f72206f66207468697320636f6e74726163742e205741474d4921",
  "devdoc": {
    "kind": "dev",
    "methods": {},
    "version": 1
  },
  "userdoc": {
    "kind": "user",
    "methods": {
      "getDeployer()": {
        "notice": "Getters "
      }
    },
    "version": 1
  },
  "storageLayout": {
    "storage": [
      {
        "astId": 6,
        "contract": "contracts/ConfessionDapp.sol:ConfessionDapp",
        "label": "confessions",
        "offset": 0,
        "slot": "0",
        "type": "t_array(t_string_storage)dyn_storage"
      }
    ],
    "types": {
      "t_array(t_string_storage)dyn_storage": {
        "base": "t_string_storage",
        "encoding": "dynamic_array",
        "label": "string[]",
        "numberOfBytes": "32"
      },
      "t_string_storage": {
        "encoding": "bytes",
        "label": "string",
        "numberOfBytes": "32"
      }
    }
  }
}