{
  "address": "0x66Fe86341089f188Cf6aF5773c235729C8787CB1",
  "abi": [
    {
      "inputs": [],
      "stateMutability": "nonpayable",
      "type": "constructor"
    },
    {
      "inputs": [],
      "name": "ConfessionDapp__NotOwner",
      "type": "error"
    },
    {
      "anonymous": false,
      "inputs": [
        {
          "indexed": false,
          "internalType": "string",
          "name": "confession",
          "type": "string"
        }
      ],
      "name": "newConfession",
      "type": "event"
    },
    {
      "inputs": [],
      "name": "clearConfessions",
      "outputs": [],
      "stateMutability": "nonpayable",
      "type": "function"
    },
    {
      "inputs": [
        {
          "internalType": "string",
          "name": "confession",
          "type": "string"
        }
      ],
      "name": "confess",
      "outputs": [],
      "stateMutability": "nonpayable",
      "type": "function"
    },
    {
      "inputs": [
        {
          "internalType": "uint256",
          "name": "",
          "type": "uint256"
        }
      ],
      "name": "confessions",
      "outputs": [
        {
          "internalType": "string",
          "name": "",
          "type": "string"
        }
      ],
      "stateMutability": "view",
      "type": "function"
    },
    {
      "inputs": [],
      "name": "getConfessions",
      "outputs": [
        {
          "internalType": "string[]",
          "name": "",
          "type": "string[]"
        }
      ],
      "stateMutability": "view",
      "type": "function"
    },
    {
      "inputs": [],
      "name": "getDeployer",
      "outputs": [
        {
          "internalType": "address",
          "name": "",
          "type": "address"
        }
      ],
      "stateMutability": "view",
      "type": "function"
    },
    {
      "inputs": [],
      "name": "i_deployer",
      "outputs": [
        {
          "internalType": "address",
          "name": "",
          "type": "address"
        }
      ],
      "stateMutability": "view",
      "type": "function"
    }
  ],
  "transactionHash": "0x57c56d178376b6e81b6af521b1003c6d8354f4ef89586699d561b9fb741e9fbc",
  "args": [],
  "numDeployments": 2,
  "solcInputHash": "f9db35731a4622b83c657f150af92c79",
  "bytecode": "0x60a060405234801561001057600080fd5b503373ffffffffffffffffffffffffffffffffffffffff1660808173ffffffffffffffffffffffffffffffffffffffff1660601b8152505060008060018154018082558091505060019003906000526020600020016000604051806080016040528060538152602001610c50605391399091909150908051906020019061009892919061009e565b506101a2565b8280546100aa90610141565b90600052602060002090601f0160209004810192826100cc5760008555610113565b82601f106100e557805160ff1916838001178555610113565b82800160010185558215610113579182015b828111156101125782518255916020019190600101906100f7565b5b5090506101209190610124565b5090565b5b8082111561013d576000816000905550600101610125565b5090565b6000600282049050600182168061015957607f821691505b6020821081141561016d5761016c610173565b5b50919050565b7f4e487b7100000000000000000000000000000000000000000000000000000000600052602260045260246000fd5b60805160601c610a826101ce600039600081816101910152818161026301526102870152610a826000f3fe608060405234801561001057600080fd5b50600436106100625760003560e01c806304141e601461006757806372630531146100835780637cf7b946146100a1578063c02f0401146100d1578063c3a84596146100ef578063e1b4fedd146100f9575b600080fd5b610081600480360381019061007c9190610636565b610117565b005b61008b61018d565b60405161009891906107b6565b60405180910390f35b6100bb60048036038101906100b6919061067f565b6101b5565b6040516100c891906107f3565b60405180910390f35b6100d9610261565b6040516100e691906107b6565b60405180910390f35b6100f7610285565b005b610101610371565b60405161010e91906107d1565b60405180910390f35b60008190806001815401808255809150506001900390600052602060002001600090919091909150908051906020019061015292919061044a565b507f87a8da5a4f131ef34436c9ae4d4390e393accb06c5b02003cf93a48cde294cd28160405161018291906107f3565b60405180910390a150565b60007f0000000000000000000000000000000000000000000000000000000000000000905090565b600081815481106101c557600080fd5b9060005260206000200160009150905080546101e09061094f565b80601f016020809104026020016040519081016040528092919081815260200182805461020c9061094f565b80156102595780601f1061022e57610100808354040283529160200191610259565b820191906000526020600020905b81548152906001019060200180831161023c57829003601f168201915b505050505081565b7f000000000000000000000000000000000000000000000000000000000000000081565b7f000000000000000000000000000000000000000000000000000000000000000073ffffffffffffffffffffffffffffffffffffffff163373ffffffffffffffffffffffffffffffffffffffff161461030a576040517f81cf074800000000000000000000000000000000000000000000000000000000815260040160405180910390fd5b600067ffffffffffffffff811115610325576103246109e1565b5b60405190808252806020026020018201604052801561035857816020015b60608152602001906001900390816103435790505b506000908051906020019061036e9291906104d0565b50565b60606000805480602002602001604051908101604052809291908181526020016000905b828210156104415783829060005260206000200180546103b49061094f565b80601f01602080910402602001604051908101604052809291908181526020018280546103e09061094f565b801561042d5780601f106104025761010080835404028352916020019161042d565b820191906000526020600020905b81548152906001019060200180831161041057829003601f168201915b505050505081526020019060010190610395565b50505050905090565b8280546104569061094f565b90600052602060002090601f01602090048101928261047857600085556104bf565b82601f1061049157805160ff19168380011785556104bf565b828001600101855582156104bf579182015b828111156104be5782518255916020019190600101906104a3565b5b5090506104cc9190610530565b5090565b82805482825590600052602060002090810192821561051f579160200282015b8281111561051e57825182908051906020019061050e92919061044a565b50916020019190600101906104f0565b5b50905061052c919061054d565b5090565b5b80821115610549576000816000905550600101610531565b5090565b5b8082111561056d57600081816105649190610571565b5060010161054e565b5090565b50805461057d9061094f565b6000825580601f1061058f57506105ae565b601f0160209004906000526020600020908101906105ad9190610530565b5b50565b60006105c46105bf8461083a565b610815565b9050828152602081018484840111156105e0576105df610a15565b5b6105eb84828561090d565b509392505050565b600082601f83011261060857610607610a10565b5b81356106188482602086016105b1565b91505092915050565b60008135905061063081610a35565b92915050565b60006020828403121561064c5761064b610a1f565b5b600082013567ffffffffffffffff81111561066a57610669610a1a565b5b610676848285016105f3565b91505092915050565b60006020828403121561069557610694610a1f565b5b60006106a384828501610621565b91505092915050565b60006106b88383610744565b905092915050565b6106c9816108d1565b82525050565b60006106da8261087b565b6106e4818561089e565b9350836020820285016106f68561086b565b8060005b85811015610732578484038952815161071385826106ac565b945061071e83610891565b925060208a019950506001810190506106fa565b50829750879550505050505092915050565b600061074f82610886565b61075981856108af565b935061076981856020860161091c565b61077281610a24565b840191505092915050565b600061078882610886565b61079281856108c0565b93506107a281856020860161091c565b6107ab81610a24565b840191505092915050565b60006020820190506107cb60008301846106c0565b92915050565b600060208201905081810360008301526107eb81846106cf565b905092915050565b6000602082019050818103600083015261080d818461077d565b905092915050565b600061081f610830565b905061082b8282610981565b919050565b6000604051905090565b600067ffffffffffffffff821115610855576108546109e1565b5b61085e82610a24565b9050602081019050919050565b6000819050602082019050919050565b600081519050919050565b600081519050919050565b6000602082019050919050565b600082825260208201905092915050565b600082825260208201905092915050565b600082825260208201905092915050565b60006108dc826108e3565b9050919050565b600073ffffffffffffffffffffffffffffffffffffffff82169050919050565b6000819050919050565b82818337600083830152505050565b60005b8381101561093a57808201518184015260208101905061091f565b83811115610949576000848401525b50505050565b6000600282049050600182168061096757607f821691505b6020821081141561097b5761097a6109b2565b5b50919050565b61098a82610a24565b810181811067ffffffffffffffff821117156109a9576109a86109e1565b5b80604052505050565b7f4e487b7100000000000000000000000000000000000000000000000000000000600052602260045260246000fd5b7f4e487b7100000000000000000000000000000000000000000000000000000000600052604160045260246000fd5b600080fd5b600080fd5b600080fd5b600080fd5b6000601f19601f8301169050919050565b610a3e81610903565b8114610a4957600080fd5b5056fea264697066735822122014c85e8ea9c8410ed9f5ccfef64c12897811b8ae2e276c36e53a67aedbcf38d764736f6c6343000807003348692c2074686973206973207468652067656e6573697320636f6e66657373696f6e2070726f6475636564206279207468652063726561746f72206f66207468697320636f6e74726163742e205741474d4921",
  "devdoc": {
    "kind": "dev",
    "methods": {},
    "version": 1
  },
  "userdoc": {
    "kind": "user",
    "methods": {
      "getDeployer()": {
        "notice": "Getters "
      }
    },
    "version": 1
  },
  "storageLayout": {
    "storage": [
      {
        "astId": 8,
        "contract": "contracts/ConfessionDapp.sol:ConfessionDapp",
        "label": "confessions",
        "offset": 0,
        "slot": "0",
        "type": "t_array(t_string_storage)dyn_storage"
      }
    ],
    "types": {
      "t_array(t_string_storage)dyn_storage": {
        "base": "t_string_storage",
        "encoding": "dynamic_array",
        "label": "string[]",
        "numberOfBytes": "32"
      },
      "t_string_storage": {
        "encoding": "bytes",
        "label": "string",
        "numberOfBytes": "32"
      }
    }
  }
}